:020000040000FA
:020000000528D1
:040002000034003492
:080008004B28EE01ED01EC01B3
:10001000DE01DF01E001E101E201C201C301E30110
:10002000E4010A30DC00DD01DA01DB01D701D8018F
:10003000D901B601B701B801B901CA01CB01CC01A0
:10004000C401A701BA01A601A5010030A900003032
:10005000EC00A801AC01B201AB01B101AD01B301EB
:10006000AF01B401B001B501D401CD01D501CE017C
:10007000D601CF01D201D001D301D101AA010614CA
:10008000CF21CF21F42174128030E12174162C226B
:100090008B170B167F2A0B128B102B1C50285F28F6
:1000A00074122808AA00C030E12174162A081B2205
:1000B000E12106302A060319B929A80AC0292C1CF7
:1000C00068287C2805302A060319B929A80AC029FE
:1000D00074122808AA007412C130E12174162A088B
:1000E0001B22E12106303106031962280930280657
:1000F0000319B929A80AC0292D1C7F289D28280882
:10010000AA007412C230E12174162A081B22E121D0
:100110000B1606303106031D972805303206031DE5
:10012000972805302A060319B929A80AC0290930D9
:1001300028060319B929A80AC0292F1CA028C128FC
:100140002808AA007412C330E12174162A081B2261
:10015000E12106303106031DBB2805303206031DA0
:10016000BB2805303206031DBB2803302A060319BD
:10017000B929A80AC029093028060319B929A80AEB
:10018000C029301CC428EA282808AA007412C430E8
:10019000E12174162A081B22E12106303106031DD5
:1001A000E42805303206031DE42805303306031D1C
:1001B000E42803303406031DE42805302A06031D15
:1001C000E428B929A80AC029093028060319B92941
:1001D000A80AC029271CED28132900302506031D75
:1001E000FB287412C530E12174162B30E1212B302D
:1001F000A600A50AC02901302506031D092974128D
:10020000C530E12174162F30E1212F30A600A50A58
:10021000C0297412C530E12174162530E121253042
:10022000A600A501C029541C1629252974122808E6
:10023000AA00C630E12174162A081B22E1210630EB
:100240002A060319B929A80AC029551C28294229B8
:1002500074122808AA007412C730E12174162A0803
:100260001B22E12106304D0603193C2909302806DE
:100270000319B929A80AC02905302A060319B92982
:10028000A80AC029561C452962292808AA00741208
:10029000C830E12174162A081B22E12106304D06E0
:1002A000031D5C2905304E06031D5C2905302A0616
:1002B0000319B929A80AC029093028060319B92940
:1002C000A80AC029521C652986292808AA00741288
:1002D000C930E12174162A081B22E12106304D069F
:1002E000031D802905304E06031D802905304F0669
:1002F000031D802903302A060319B929A80AC02939
:10030000093028060319B929A80AC029531C8929CC
:10031000AF292808AA007412CA30E12174162A08ED
:100320001B22E12106304D06031DA92905304E068A
:10033000031DA92905304F06031DA92903305006C6
:10034000031DA92905302A06031DE428B929A80A96
:10035000C029093028060319B929A80AC029003084
:100360006D060319BB29B42901306E060319ED2867
:10037000C029A801C02902306E06031DEE0AC0295B
:100380000C10E1308F00F4308E000C140B1671222B
:100390000900F930F0000000F00BCB290800F10053
:1003A000C921F10BD02908008516C921C921C9210D
:1003B000C921C9218512C921C921C921C921C92140
:1003C0000800F500F039F200F20E72088500741A88
:1003D0000516D421C92175080F3985018500741AC5
:1003E0000516D421C92108006430CF210F30F40054
:1003F00083160313850183120313850183160313E8
:1004000006309F008312031303308500D42105308A
:10041000CF21D421C921D4210510D4212830E121B4
:100420000830E1210130E1210630E121C030E12135
:100430000C30E1210800303E08000C108F018E01C5
:10044000E1308F00F4308E0008001E308F000C3039
:100450008E000130900008004530E1216E30E1212E
:100460007430E1216530E1217230E1212030E12159
:100470004F30E1217030E1216530E1217230E1211E
:100480006130E1217430E1216930E1216F30E121F7
:100490006E30E12108005230E1216530E1217330F6
:1004A000E1217530E1216C30E1217430E121080057
:1004B0004D30E1216130E1217430E1216830E121EA
:1004C0002030E1216530E1217230E1217230E121FB
:1004D0006F30E1217230E1213A30E1212830E12111
:1004E00008000030A9000030EC000800CA01CB0170
:1004F000CC0108000C100C10003090000800712294
:1005000025220B16A8010C147412C030E1217416B8
:100510003030E121A80A1D220C1C8C2AA90B8B2A41
:100520007A222A08B1000130AB000C14A801AA01FC
:100530000030A900013090000B163030E121A80AEC
:100540001D220C1CA12AA90BA02A7A222A08B2007B
:100550000130AC000C14A801AA010030A900013040
:1005600090000B163030E121A80A1D220C1CB62A7F
:10057000A90BB52A7A222A08B3000130AD000C1469
:10058000A801AA010030A900013090000B163030FC
:10059000E121A80A1D220C1CCB2AA90BCA2A7A2207
:1005A0002A08B4000130AF000C14A801AA010030E1
:1005B000A900013090000B163030E121A80A1D225D
:1005C0000C1CE02AA90BDF2A7A222A08B500013088
:1005D000B0000C14A801AA010030A900013090005D
:1005E0000B162B30A6002B30E121A50A1D220C1C76
:1005F000F72AA90BF62A7A220130A7000C14A801C9
:10060000AA010030A900013090000B163030E12122
:10061000A80A1D220C1C0A2BA90B092B7A222A08D6
:10062000CD000130D4000C14A801AA010030A900AB
:10063000013090000B163030E121A80A1D220C1C5D
:100640001F2BA90B1E2B7A222A08CE000130D500C1
:100650000C14A801AA010030A900013090000B166B
:100660003030E121A80A1D220C1C342BA90B332B9E
:100670007A222A08CF000130D6000C14A801AA0162
:100680000030A900013090000B163030E121A80A9B
:100690001D220C1C492BA90B482B0C100C100030F0
:1006A00090002A08D0000130D2000C14A801AA0141
:1006B0000030A900013090000B163030E121A80A6B
:1006C0001D220C1C612BA90B602B0C100C10003090
:1006D00090002A08D1000130D3000C14A801AA010F
:1006E0000030A9002B302606031D272CBB0135083E
:1006F000BB075108BB073B08C5000930C5020319F9
:10070000842B0318872B8C2B0030C4008F2B0A30CE
:10071000BB020130C4008F2B0030C4008F2BBC0102
:100720003408BC074408BC075008BC073C08C60096
:100730000930C60203199F2B0318A22BA72B0030E8
:10074000C400AA2B0A30BC020130C400AA2B00301E
:10075000C400AA2BBD013308BD074408BD074F08DC
:10076000BD073D08C7000930C7020319BA2B03189B
:10077000BD2BC22B0030C400C52B0A30BD02013096
:10078000C400C52B0030C400C52BBE013208BE0713
:100790004408BE074E08BE073E08C8000930C8021C
:1007A0000319D52B0318D82BDD2B0030C400E02B08
:1007B0000A30BE020130C400E02B0030C400E02B40
:1007C000BF013108BF074408BF074D08BF073F08F6
:1007D000C9000930C9020319F02B0318F32BF82BB9
:1007E0000030C400FB2B0A30BF020130C400FB2BD9
:1007F0000030C400FB2BCF21CF21F42174128030B4
:10080000E12174165230E1216530E1217330E1219C
:100810007530E1216C30E1217430E1217412C03077
:10082000E12174163D30E12144081B22E1213F08FB
:100830001B22E1213E081B22E1213D081B22E12170
:100840003C081B22E1213B081B22E1215F2FDA013A
:10085000DB01D701D801D901B601B701B801B9014F
:100860002F302606031D5C2E3108CA0000303106E9
:1008700003194B2C00304A0603194B2C6430CB0073
:100880006430CC00B60A0319B70ACC0B422CCB0B50
:10089000402CCA0B3A2C76224D08CA0000304D0677
:1008A0000319632C00304A060319632C6430CB0013
:1008B0006430CC00B80A0319B90ACC0B5A2CCB0B04
:1008C000582CCA0B522C76220030320603197B2C8E
:1008D0003208CA0000304A0603197B2C0A30CB00CC
:1008E0006430CC00B60A0319B70ACC0B722CCB0BC0
:1008F000702CCA0B6A2C762200304E060319932CFA
:100900004E08CA0000304A060319932C0A30CB0067
:100910006430CC00B80A0319B90ACC0B8A2CCB0B73
:10092000882CCA0B822C7622003033060319A72CA0
:100930003308CA0000304A060319A72C6430CB00E4
:10094000B60A0319B70ACB0BA02CCA0B9A2C762235
:1009500000304F060319BB2C4F08CA0000304A066E
:100960000319BB2C6430CB00B80A0319B90ACB0BAE
:10097000B42CCA0BAE2C7622003034060319CF2CCF
:100980003408CA0000304A060319CF2C0A30CB00C5
:10099000B60A0319B70ACB0BC82CCA0BC22C762295
:1009A000003050060319E32C5008CA0000304A06F4
:1009B0000319E32C0A30CB00B80A0319B90ACB0B90
:1009C000DC2CCA0BD62C7622003035060319F32C0A
:1009D0003508CA0000304A0603194B2CB60A031921
:1009E000B70ACA0BEA2C7622003051060319032DF0
:1009F0005108CA0000304A0603194B2CB80A0319E3
:100A0000B90ACA0BFA2CB808031D142DB908031D26
:100A1000142DCF21CF21F42174128030E1217416DE
:100A20005822CF21CF2105280130D700D801C2019B
:100A3000C301B91B222D0310D70DD80D0310B80D1B
:100A4000B90D192D3908D9003808B602031CD90A86
:100A50005908B7020318332D3808B6070318B70A28
:100A60003908B707392D5708C2070318C30A5808B1
:100A7000C3070310B90CB80C0310D80CD70C031C17
:100A8000222D3708DB003608DA000A30DC00D901F5
:100A90002F302606031D5D2EE301E401D90101304C
:100AA000D700D801DD1B5B2D0310D70DD80D031027
:100AB000DC0DDD0D522D5D08D9005C08C202031C5F
:100AC000D90A5908C30203186C2D5C08C207031821
:100AD000C30A5D08C307722D5708E3070318E40A29
:100AE0005808E4070310DD0CDC0C0310D80CD70CFD
:100AF000031C5B2D4208E2006308C2006408C300C7
:100B00000A30DC00E301E401D9010130D700D8014B
:100B1000DD1B912D0310D70DD80D0310DC0DDD0D5D
:100B2000882D5D08D9005C08C202031CD90A590847
:100B3000C3020318A22D5C08C2070318C30A5D088C
:100B4000C307A82D5708E3070318E40A5808E40769
:100B50000310DD0CDC0C0310D80CD70C031C912DFA
:100B60004208E1006308C2006408C3000A30DC00E8
:100B7000E301E401D9010130D700D801DD1BC72D05
:100B80000310D70DD80D0310DC0DDD0DBE2D5D0853
:100B9000D9005C08C202031CD90A5908C302031811
:100BA000D82D5C08C2070318C30A5D08C307DE2DF1
:100BB0005708E3070318E40A5808E4070310DD0C9C
:100BC000DC0C0310D80CD70C031CC72D4208E00026
:100BD0006308C2006408C3000A30DC00E301E401DA
:100BE000D9010130D700D801DD1BFD2D0310D70D31
:100BF000D80D0310DC0DDD0DF42D5D08D9005C0867
:100C0000C202031CD90A5908C30203180E2E5C083D
:100C1000C2070318C30A5D08C307142E5708E30769
:100C20000318E40A5808E4070310DD0CDC0C031079
:100C3000D80CD70C031CFD2D4208DF006308C2004E
:100C40006408C3006308DE006308C2006408C300D0
:100C50005D2ECF21CF21F42174128030E121741652
:100C60004B227412C030E12174163D30E1215E0840
:100C70001B22E1215F081B22E12160081B22E121E8
:100C800061081B22E12162081B22E1212030E121C1
:100C90005230E1213A30E1216B081B22E1216A0840
:100CA0001B22E12169081B22E12168081B22E121A6
:100CB00067081B22E1215F2F342C0A30DC00D701AA
:100CC000D801D901E501E601D9010130D700D801E9
:100CD000DD1B712E0310D70DD80D0310DC0DDD0DBB
:100CE000682E5D08D9005C08DA02031CD90A59088D
:100CF000DB020318822E5C08DA070318DB0A5D08A2
:100D0000DB07882E5708E5070318E60A5808E607A8
:100D10000310DD0CDC0C0310D80CD70C031C712E57
:100D20005A08E7006508DA006608DB000A30DC00D4
:100D3000E501E601D9010130D700D801DD1BA72E5E
:100D40000310D70DD80D0310DC0DDD0D9E2E5D08B0
:100D5000D9005C08DA02031CD90A5908DB0203181F
:100D6000B82E5C08DA070318DB0A5D08DB07BE2E25
:100D70005708E5070318E60A5808E6070310DD0CD4
:100D8000DC0C0310D80CD70C031CA72E5A08E80063
:100D90006508DA006608DB000A30DC00E501E601E0
:100DA000D9010130D700D801DD1BDD2E0310D70D8E
:100DB000D80D0310DC0DDD0DD42E5D08D9005C08C4
:100DC000DA02031CD90A5908DB020318EE2E5C086C
:100DD000DA070318DB0A5D08DB07F42E5708E5077E
:100DE0000318E60A5808E6070310DD0CDC0C0310B4
:100DF000D80CD70C031CDD2E5A08E9006508DA0070
:100E00006608DB000A30DC00E501E601D9010130AB
:100E1000D700D801DD1B132F0310D70DD80D0310F9
:100E2000DC0DDD0D0A2F5D08D9005C08DA02031C19
:100E3000D90A5908DB020318242F5C08DA070318C3
:100E4000DB0A5D08DB072A2F5708E5070318E60AC7
:100E50005808E6070310DD0CDC0C0310D80CD70C87
:100E6000031C132F5A08EA006508DA006608DB0045
:100E70006508EB006508DA006608DB002530260609
:100E8000031D292ECF21CF21F42174128030E121BE
:100E900074164B227412C030E12174163D30E121EA
:100EA0006B081B22E1216A081B22E12169081B2231
:100EB000E12168081B22E12167081B22E1210130A2
:100EC000ED00EE010C14013090000B161D220C1CDD
:100ED000672FEC0B662F0C100C10003090000C14D8
:100EE000A801AA017122013090000B16ED01CF215B
:100EF000CF21F42174128030E12174164B30E121AE
:100F00006530E1216530E1217030E1213F30E121A0
:100F10005B30E1213130E1213A30E1215930E121EA
:100F20002C30E1212030E1213230E1213A30E12141
:100F30004E30E1215D30E1210C14013090000B16A0
:100F40001D220C1CA12FA90BA02F0C100C1000307F
:100F500090000C14A801AA017122013090000B1618
:100F60000130ED0001306E06031DF72FCF21CF2198
:100F7000F42174128030E12174162C227412C030D6
:100F8000E121741631081B22E12132081B22E121E4
:100F900033081B22E12134081B22E12135081B22E2
:100FA000E1212608E1214D081B22E1214E081B22E8
:100FB000E1214F081B22E12150081B22E1215108A9
:100FC0001B22E1210C14013090000B161D220C1C79
:100FD000E72FA90BE62F0C100C10003090000C141A
:100FE000A801AA017122013090000B16722B0B127E
:020FF0000528D2
:02400E00313748
:00000001FF
